{
  "_format": "hh-sol-artifact-1",
  "contractName": "KoinFesT",
  "sourceName": "contracts/KoinFesT.sol",
  "abi": [
    {
      "inputs": [],
      "stateMutability": "nonpayable",
      "type": "constructor"
    },
    {
      "anonymous": false,
      "inputs": [
        {
          "indexed": true,
          "internalType": "address",
          "name": "owner",
          "type": "address"
        },
        {
          "indexed": true,
          "internalType": "address",
          "name": "approved",
          "type": "address"
        },
        {
          "indexed": true,
          "internalType": "uint256",
          "name": "tokenId",
          "type": "uint256"
        }
      ],
      "name": "Approval",
      "type": "event"
    },
    {
      "anonymous": false,
      "inputs": [
        {
          "indexed": true,
          "internalType": "address",
          "name": "owner",
          "type": "address"
        },
        {
          "indexed": true,
          "internalType": "address",
          "name": "operator",
          "type": "address"
        },
        {
          "indexed": false,
          "internalType": "bool",
          "name": "approved",
          "type": "bool"
        }
      ],
      "name": "ApprovalForAll",
      "type": "event"
    },
    {
      "anonymous": false,
      "inputs": [
        {
          "indexed": true,
          "internalType": "address",
          "name": "previousOwner",
          "type": "address"
        },
        {
          "indexed": true,
          "internalType": "address",
          "name": "newOwner",
          "type": "address"
        }
      ],
      "name": "OwnershipTransferred",
      "type": "event"
    },
    {
      "anonymous": false,
      "inputs": [
        {
          "indexed": true,
          "internalType": "address",
          "name": "recipient",
          "type": "address"
        },
        {
          "indexed": false,
          "internalType": "uint256",
          "name": "firstTokenId",
          "type": "uint256"
        },
        {
          "indexed": false,
          "internalType": "uint256",
          "name": "quantity",
          "type": "uint256"
        }
      ],
      "name": "TokensMinted",
      "type": "event"
    },
    {
      "anonymous": false,
      "inputs": [
        {
          "indexed": true,
          "internalType": "address",
          "name": "from",
          "type": "address"
        },
        {
          "indexed": true,
          "internalType": "address",
          "name": "to",
          "type": "address"
        },
        {
          "indexed": true,
          "internalType": "uint256",
          "name": "tokenId",
          "type": "uint256"
        }
      ],
      "name": "Transfer",
      "type": "event"
    },
    {
      "inputs": [],
      "name": "PRICE_PER_NFT",
      "outputs": [
        {
          "internalType": "uint256",
          "name": "",
          "type": "uint256"
        }
      ],
      "stateMutability": "view",
      "type": "function"
    },
    {
      "inputs": [
        {
          "internalType": "address",
          "name": "to",
          "type": "address"
        },
        {
          "internalType": "uint256",
          "name": "tokenId",
          "type": "uint256"
        }
      ],
      "name": "approve",
      "outputs": [],
      "stateMutability": "nonpayable",
      "type": "function"
    },
    {
      "inputs": [
        {
          "internalType": "address",
          "name": "owner",
          "type": "address"
        }
      ],
      "name": "balanceOf",
      "outputs": [
        {
          "internalType": "uint256",
          "name": "",
          "type": "uint256"
        }
      ],
      "stateMutability": "view",
      "type": "function"
    },
    {
      "inputs": [],
      "name": "getAlltoken",
      "outputs": [
        {
          "components": [
            {
              "internalType": "uint256",
              "name": "id",
              "type": "uint256"
            },
            {
              "internalType": "string",
              "name": "uri",
              "type": "string"
            },
            {
              "internalType": "string",
              "name": "space",
              "type": "string"
            }
          ],
          "internalType": "struct KoinFesT.RenderToken[]",
          "name": "",
          "type": "tuple[]"
        }
      ],
      "stateMutability": "view",
      "type": "function"
    },
    {
      "inputs": [
        {
          "internalType": "uint256",
          "name": "tokenId",
          "type": "uint256"
        }
      ],
      "name": "getApproved",
      "outputs": [
        {
          "internalType": "address",
          "name": "",
          "type": "address"
        }
      ],
      "stateMutability": "view",
      "type": "function"
    },
    {
      "inputs": [
        {
          "internalType": "address",
          "name": "owner",
          "type": "address"
        },
        {
          "internalType": "address",
          "name": "operator",
          "type": "address"
        }
      ],
      "name": "isApprovedForAll",
      "outputs": [
        {
          "internalType": "bool",
          "name": "",
          "type": "bool"
        }
      ],
      "stateMutability": "view",
      "type": "function"
    },
    {
      "inputs": [
        {
          "internalType": "address",
          "name": "recipents",
          "type": "address"
        },
        {
          "internalType": "string",
          "name": "_uri",
          "type": "string"
        }
      ],
      "name": "mint",
      "outputs": [
        {
          "internalType": "uint256",
          "name": "",
          "type": "uint256"
        }
      ],
      "stateMutability": "nonpayable",
      "type": "function"
    },
    {
      "inputs": [
        {
          "internalType": "address",
          "name": "recipient",
          "type": "address"
        },
        {
          "internalType": "uint256",
          "name": "quantity",
          "type": "uint256"
        },
        {
          "internalType": "string[]",
          "name": "_uris",
          "type": "string[]"
        }
      ],
      "name": "mintMultiple",
      "outputs": [],
      "stateMutability": "payable",
      "type": "function"
    },
    {
      "inputs": [],
      "name": "name",
      "outputs": [
        {
          "internalType": "string",
          "name": "",
          "type": "string"
        }
      ],
      "stateMutability": "view",
      "type": "function"
    },
    {
      "inputs": [],
      "name": "owner",
      "outputs": [
        {
          "internalType": "address",
          "name": "",
          "type": "address"
        }
      ],
      "stateMutability": "view",
      "type": "function"
    },
    {
      "inputs": [
        {
          "internalType": "uint256",
          "name": "tokenId",
          "type": "uint256"
        }
      ],
      "name": "ownerOf",
      "outputs": [
        {
          "internalType": "address",
          "name": "",
          "type": "address"
        }
      ],
      "stateMutability": "view",
      "type": "function"
    },
    {
      "inputs": [],
      "name": "renounceOwnership",
      "outputs": [],
      "stateMutability": "nonpayable",
      "type": "function"
    },
    {
      "inputs": [
        {
          "internalType": "address",
          "name": "from",
          "type": "address"
        },
        {
          "internalType": "address",
          "name": "to",
          "type": "address"
        },
        {
          "internalType": "uint256",
          "name": "tokenId",
          "type": "uint256"
        }
      ],
      "name": "safeTransferFrom",
      "outputs": [],
      "stateMutability": "nonpayable",
      "type": "function"
    },
    {
      "inputs": [
        {
          "internalType": "address",
          "name": "from",
          "type": "address"
        },
        {
          "internalType": "address",
          "name": "to",
          "type": "address"
        },
        {
          "internalType": "uint256",
          "name": "tokenId",
          "type": "uint256"
        },
        {
          "internalType": "bytes",
          "name": "data",
          "type": "bytes"
        }
      ],
      "name": "safeTransferFrom",
      "outputs": [],
      "stateMutability": "nonpayable",
      "type": "function"
    },
    {
      "inputs": [
        {
          "internalType": "address",
          "name": "operator",
          "type": "address"
        },
        {
          "internalType": "bool",
          "name": "approved",
          "type": "bool"
        }
      ],
      "name": "setApprovalForAll",
      "outputs": [],
      "stateMutability": "nonpayable",
      "type": "function"
    },
    {
      "inputs": [
        {
          "internalType": "bytes4",
          "name": "interfaceId",
          "type": "bytes4"
        }
      ],
      "name": "supportsInterface",
      "outputs": [
        {
          "internalType": "bool",
          "name": "",
          "type": "bool"
        }
      ],
      "stateMutability": "view",
      "type": "function"
    },
    {
      "inputs": [],
      "name": "symbol",
      "outputs": [
        {
          "internalType": "string",
          "name": "",
          "type": "string"
        }
      ],
      "stateMutability": "view",
      "type": "function"
    },
    {
      "inputs": [
        {
          "internalType": "uint256",
          "name": "tokenId",
          "type": "uint256"
        }
      ],
      "name": "tokenURI",
      "outputs": [
        {
          "internalType": "string",
          "name": "",
          "type": "string"
        }
      ],
      "stateMutability": "view",
      "type": "function"
    },
    {
      "inputs": [
        {
          "internalType": "address",
          "name": "from",
          "type": "address"
        },
        {
          "internalType": "address",
          "name": "to",
          "type": "address"
        },
        {
          "internalType": "uint256",
          "name": "tokenId",
          "type": "uint256"
        }
      ],
      "name": "transferFrom",
      "outputs": [],
      "stateMutability": "nonpayable",
      "type": "function"
    },
    {
      "inputs": [
        {
          "internalType": "address",
          "name": "from",
          "type": "address"
        },
        {
          "internalType": "address",
          "name": "to",
          "type": "address"
        },
        {
          "internalType": "uint256",
          "name": "tokenId",
          "type": "uint256"
        }
      ],
      "name": "transferNFT",
      "outputs": [],
      "stateMutability": "nonpayable",
      "type": "function"
    },
    {
      "inputs": [
        {
          "internalType": "address",
          "name": "newOwner",
          "type": "address"
        }
      ],
      "name": "transferOwnership",
      "outputs": [],
      "stateMutability": "nonpayable",
      "type": "function"
    },
    {
      "inputs": [],
      "name": "withdraw",
      "outputs": [],
      "stateMutability": "nonpayable",
      "type": "function"
    }
  ],
  "bytecode": "0x60806040523480156200001157600080fd5b506040518060400160405280600881526020017f4b6f696e466573540000000000000000000000000000000000000000000000008152506040518060400160405280600381526020017f4b4654000000000000000000000000000000000000000000000000000000000081525081600090816200008f919062000412565b508060019081620000a1919062000412565b505050620000c4620000b8620000ca60201b60201c565b620000d260201b60201c565b620004f9565b600033905090565b6000600660009054906101000a900473ffffffffffffffffffffffffffffffffffffffff16905081600660006101000a81548173ffffffffffffffffffffffffffffffffffffffff021916908373ffffffffffffffffffffffffffffffffffffffff1602179055508173ffffffffffffffffffffffffffffffffffffffff168173ffffffffffffffffffffffffffffffffffffffff167f8be0079c531659141344cd1fd0a4f28419497f9722a3daafe3b4186f6b6457e060405160405180910390a35050565b600081519050919050565b7f4e487b7100000000000000000000000000000000000000000000000000000000600052604160045260246000fd5b7f4e487b7100000000000000000000000000000000000000000000000000000000600052602260045260246000fd5b600060028204905060018216806200021a57607f821691505b60208210810362000230576200022f620001d2565b5b50919050565b60008190508160005260206000209050919050565b60006020601f8301049050919050565b600082821b905092915050565b6000600883026200029a7fffffffffffffffffffffffffffffffffffffffffffffffffffffffffffffffff826200025b565b620002a686836200025b565b95508019841693508086168417925050509392505050565b6000819050919050565b6000819050919050565b6000620002f3620002ed620002e784620002be565b620002c8565b620002be565b9050919050565b6000819050919050565b6200030f83620002d2565b620003276200031e82620002fa565b84845462000268565b825550505050565b600090565b6200033e6200032f565b6200034b81848462000304565b505050565b5b8181101562000373576200036760008262000334565b60018101905062000351565b5050565b601f821115620003c2576200038c8162000236565b62000397846200024b565b81016020851015620003a7578190505b620003bf620003b6856200024b565b83018262000350565b50505b505050565b600082821c905092915050565b6000620003e760001984600802620003c7565b1980831691505092915050565b6000620004028383620003d4565b9150826002028217905092915050565b6200041d8262000198565b67ffffffffffffffff811115620004395762000438620001a3565b5b62000445825462000201565b6200045282828562000377565b600060209050601f8311600181146200048a576000841562000475578287015190505b620004818582620003f4565b865550620004f1565b601f1984166200049a8662000236565b60005b82811015620004c4578489015182556001820191506020850194506020810190506200049d565b86831015620004e45784890151620004e0601f891682620003d4565b8355505b6001600288020188555050505b505050505050565b61368880620005096000396000f3fe6080604052600436106101355760003560e01c8063715018a6116100ab578063b88d4fde1161006f578063b88d4fde14610400578063c87b56dd14610429578063d0def52114610466578063db39c882146104a3578063e985e9c5146104bf578063f2fde38b146104fc57610135565b8063715018a61461033f5780638da5cb5b1461035657806395d89b4114610381578063a22cb465146103ac578063a4de304f146103d557610135565b806328904431116100fd57806328904431146102315780633ccfd60b1461025c57806342842e0e146102735780636352211e1461029c57806369e9cae1146102d957806370a082311461030257610135565b806301ffc9a71461013a57806306fdde0314610177578063081812fc146101a2578063095ea7b3146101df57806323b872dd14610208575b600080fd5b34801561014657600080fd5b50610161600480360381019061015c9190611e98565b610525565b60405161016e9190611ee0565b60405180910390f35b34801561018357600080fd5b5061018c610607565b6040516101999190611f8b565b60405180910390f35b3480156101ae57600080fd5b506101c960048036038101906101c49190611fe3565b610699565b6040516101d69190612051565b60405180910390f35b3480156101eb57600080fd5b5061020660048036038101906102019190612098565b6106df565b005b34801561021457600080fd5b5061022f600480360381019061022a91906120d8565b6107f6565b005b34801561023d57600080fd5b50610246610856565b604051610253919061229d565b60405180910390f35b34801561026857600080fd5b5061027161096f565b005b34801561027f57600080fd5b5061029a600480360381019061029591906120d8565b610a10565b005b3480156102a857600080fd5b506102c360048036038101906102be9190611fe3565b610a30565b6040516102d09190612051565b60405180910390f35b3480156102e557600080fd5b5061030060048036038101906102fb91906120d8565b610ab6565b005b34801561030e57600080fd5b50610329600480360381019061032491906122bf565b610b16565b60405161033691906122fb565b60405180910390f35b34801561034b57600080fd5b50610354610bcd565b005b34801561036257600080fd5b5061036b610be1565b6040516103789190612051565b60405180910390f35b34801561038d57600080fd5b50610396610c0b565b6040516103a39190611f8b565b60405180910390f35b3480156103b857600080fd5b506103d360048036038101906103ce9190612342565b610c9d565b005b3480156103e157600080fd5b506103ea610cb3565b6040516103f791906122fb565b60405180910390f35b34801561040c57600080fd5b50610427600480360381019061042291906124b7565b610cbe565b005b34801561043557600080fd5b50610450600480360381019061044b9190611fe3565b610d20565b60405161045d9190611f8b565b60405180910390f35b34801561047257600080fd5b5061048d600480360381019061048891906125db565b610e13565b60405161049a91906122fb565b60405180910390f35b6104bd60048036038101906104b8919061271d565b610e4a565b005b3480156104cb57600080fd5b506104e660048036038101906104e1919061278c565b61104a565b6040516104f39190611ee0565b60405180910390f35b34801561050857600080fd5b50610523600480360381019061051e91906122bf565b6110de565b005b60007f80ac58cd000000000000000000000000000000000000000000000000000000007bffffffffffffffffffffffffffffffffffffffffffffffffffffffff1916827bffffffffffffffffffffffffffffffffffffffffffffffffffffffff191614806105f057507f5b5e139f000000000000000000000000000000000000000000000000000000007bffffffffffffffffffffffffffffffffffffffffffffffffffffffff1916827bffffffffffffffffffffffffffffffffffffffffffffffffffffffff1916145b8061060057506105ff82611161565b5b9050919050565b606060008054610616906127fb565b80601f0160208091040260200160405190810160405280929190818152602001828054610642906127fb565b801561068f5780601f106106645761010080835404028352916020019161068f565b820191906000526020600020905b81548152906001019060200180831161067257829003601f168201915b5050505050905090565b60006106a4826111cb565b6004600083815260200190815260200160002060009054906101000a900473ffffffffffffffffffffffffffffffffffffffff169050919050565b60006106ea82610a30565b90508073ffffffffffffffffffffffffffffffffffffffff168373ffffffffffffffffffffffffffffffffffffffff160361075a576040517f08c379a00000000000000000000000000000000000000000000000000000000081526004016107519061289e565b60405180910390fd5b8073ffffffffffffffffffffffffffffffffffffffff16610779611216565b73ffffffffffffffffffffffffffffffffffffffff1614806107a857506107a7816107a2611216565b61104a565b5b6107e7576040517f08c379a00000000000000000000000000000000000000000000000000000000081526004016107de90612930565b60405180910390fd5b6107f1838361121e565b505050565b610807610801611216565b826112d7565b610846576040517f08c379a000000000000000000000000000000000000000000000000000000000815260040161083d906129c2565b60405180910390fd5b61085183838361136c565b505050565b606060006108646007611665565b905060008167ffffffffffffffff8111156108825761088161238c565b5b6040519080825280602002602001820160405280156108bb57816020015b6108a8611e0b565b8152602001906001900390816108a05790505b50905060005b828111610966576108d181611673565b156109535760006108e182610d20565b905060405180606001604052808381526020018281526020016040518060400160405280600181526020017f2000000000000000000000000000000000000000000000000000000000000000815250815250838381518110610946576109456129e2565b5b6020026020010181905250505b808061095e90612a40565b9150506108c1565b50809250505090565b6109776116b4565b6000479050600081116109bf576040517f08c379a00000000000000000000000000000000000000000000000000000000081526004016109b690612ad4565b60405180910390fd5b6109c7610be1565b73ffffffffffffffffffffffffffffffffffffffff166108fc829081150290604051600060405180830381858888f19350505050158015610a0c573d6000803e3d6000fd5b5050565b610a2b83838360405180602001604052806000815250610cbe565b505050565b600080610a3c83611732565b9050600073ffffffffffffffffffffffffffffffffffffffff168173ffffffffffffffffffffffffffffffffffffffff1603610aad576040517f08c379a0000000000000000000000000000000000000000000000000000000008152600401610aa490612b40565b60405180910390fd5b80915050919050565b610ac7610ac1611216565b826112d7565b610b06576040517f08c379a0000000000000000000000000000000000000000000000000000000008152600401610afd90612bd2565b60405180910390fd5b610b1183838361136c565b505050565b60008073ffffffffffffffffffffffffffffffffffffffff168273ffffffffffffffffffffffffffffffffffffffff1603610b86576040517f08c379a0000000000000000000000000000000000000000000000000000000008152600401610b7d90612c64565b60405180910390fd5b600360008373ffffffffffffffffffffffffffffffffffffffff1673ffffffffffffffffffffffffffffffffffffffff168152602001908152602001600020549050919050565b610bd56116b4565b610bdf600061176f565b565b6000600660009054906101000a900473ffffffffffffffffffffffffffffffffffffffff16905090565b606060018054610c1a906127fb565b80601f0160208091040260200160405190810160405280929190818152602001828054610c46906127fb565b8015610c935780601f10610c6857610100808354040283529160200191610c93565b820191906000526020600020905b815481529060010190602001808311610c7657829003601f168201915b5050505050905090565b610caf610ca8611216565b8383611835565b5050565b66b1a2bc2ec5000081565b610ccf610cc9611216565b836112d7565b610d0e576040517f08c379a0000000000000000000000000000000000000000000000000000000008152600401610d05906129c2565b60405180910390fd5b610d1a848484846119a1565b50505050565b6060610d2b82611673565b610d6a576040517f08c379a0000000000000000000000000000000000000000000000000000000008152600401610d6190612cd0565b60405180910390fd5b6000600860008481526020019081526020016000208054610d8a906127fb565b80601f0160208091040260200160405190810160405280929190818152602001828054610db6906127fb565b8015610e035780601f10610dd857610100808354040283529160200191610e03565b820191906000526020600020905b815481529060010190602001808311610de657829003601f168201915b5050505050905080915050919050565b600080610e206007611665565b9050610e2c84826119fd565b610e368184611c1a565b610e406007611c3f565b8091505092915050565b60008211610e8d576040517f08c379a0000000000000000000000000000000000000000000000000000000008152600401610e8490612d3c565b60405180910390fd5b81815114610ed0576040517f08c379a0000000000000000000000000000000000000000000000000000000008152600401610ec790612dce565b60405180910390fd5b60008266b1a2bc2ec50000610ee59190612dee565b905080341015610f2a576040517f08c379a0000000000000000000000000000000000000000000000000000000008152600401610f2190612e7c565b60405180910390fd5b6000610f366007611665565b905060005b84811015610f97576000610f4f6007611665565b9050610f5b87826119fd565b610f7f81868481518110610f7257610f716129e2565b5b6020026020010151611c1a565b610f896007611c3f565b508080600101915050610f3b565b5081341115610ff3573373ffffffffffffffffffffffffffffffffffffffff166108fc8334610fc69190612e9c565b9081150290604051600060405180830381858888f19350505050158015610ff1573d6000803e3d6000fd5b505b8473ffffffffffffffffffffffffffffffffffffffff167f2e8ac5177a616f2aec08c3048f5021e4e9743ece034e8d83ba5caf76688bb475828660405161103b929190612ed0565b60405180910390a25050505050565b6000600560008473ffffffffffffffffffffffffffffffffffffffff1673ffffffffffffffffffffffffffffffffffffffff16815260200190815260200160002060008373ffffffffffffffffffffffffffffffffffffffff1673ffffffffffffffffffffffffffffffffffffffff16815260200190815260200160002060009054906101000a900460ff16905092915050565b6110e66116b4565b600073ffffffffffffffffffffffffffffffffffffffff168173ffffffffffffffffffffffffffffffffffffffff1603611155576040517f08c379a000000000000000000000000000000000000000000000000000000000815260040161114c90612f6b565b60405180910390fd5b61115e8161176f565b50565b60007f01ffc9a7000000000000000000000000000000000000000000000000000000007bffffffffffffffffffffffffffffffffffffffffffffffffffffffff1916827bffffffffffffffffffffffffffffffffffffffffffffffffffffffff1916149050919050565b6111d481611673565b611213576040517f08c379a000000000000000000000000000000000000000000000000000000000815260040161120a90612b40565b60405180910390fd5b50565b600033905090565b816004600083815260200190815260200160002060006101000a81548173ffffffffffffffffffffffffffffffffffffffff021916908373ffffffffffffffffffffffffffffffffffffffff160217905550808273ffffffffffffffffffffffffffffffffffffffff1661129183610a30565b73ffffffffffffffffffffffffffffffffffffffff167f8c5be1e5ebec7d5bd14f71427d1e84f3dd0314c0f7b2291e5b200ac8c7c3b92560405160405180910390a45050565b6000806112e383610a30565b90508073ffffffffffffffffffffffffffffffffffffffff168473ffffffffffffffffffffffffffffffffffffffff1614806113255750611324818561104a565b5b8061136357508373ffffffffffffffffffffffffffffffffffffffff1661134b84610699565b73ffffffffffffffffffffffffffffffffffffffff16145b91505092915050565b8273ffffffffffffffffffffffffffffffffffffffff1661138c82610a30565b73ffffffffffffffffffffffffffffffffffffffff16146113e2576040517f08c379a00000000000000000000000000000000000000000000000000000000081526004016113d990612ffd565b60405180910390fd5b600073ffffffffffffffffffffffffffffffffffffffff168273ffffffffffffffffffffffffffffffffffffffff1603611451576040517f08c379a00000000000000000000000000000000000000000000000000000000081526004016114489061308f565b60405180910390fd5b61145e8383836001611c55565b8273ffffffffffffffffffffffffffffffffffffffff1661147e82610a30565b73ffffffffffffffffffffffffffffffffffffffff16146114d4576040517f08c379a00000000000000000000000000000000000000000000000000000000081526004016114cb90612ffd565b60405180910390fd5b6004600082815260200190815260200160002060006101000a81549073ffffffffffffffffffffffffffffffffffffffff02191690556001600360008573ffffffffffffffffffffffffffffffffffffffff1673ffffffffffffffffffffffffffffffffffffffff168152602001908152602001600020600082825403925050819055506001600360008473ffffffffffffffffffffffffffffffffffffffff1673ffffffffffffffffffffffffffffffffffffffff16815260200190815260200160002060008282540192505081905550816002600083815260200190815260200160002060006101000a81548173ffffffffffffffffffffffffffffffffffffffff021916908373ffffffffffffffffffffffffffffffffffffffff160217905550808273ffffffffffffffffffffffffffffffffffffffff168473ffffffffffffffffffffffffffffffffffffffff167fddf252ad1be2c89b69c2b068fc378daa952ba7f163c4a11628f55a4df523b3ef60405160405180910390a46116608383836001611c5b565b505050565b600081600001549050919050565b60008073ffffffffffffffffffffffffffffffffffffffff1661169583611732565b73ffffffffffffffffffffffffffffffffffffffff1614159050919050565b6116bc611216565b73ffffffffffffffffffffffffffffffffffffffff166116da610be1565b73ffffffffffffffffffffffffffffffffffffffff1614611730576040517f08c379a0000000000000000000000000000000000000000000000000000000008152600401611727906130fb565b60405180910390fd5b565b60006002600083815260200190815260200160002060009054906101000a900473ffffffffffffffffffffffffffffffffffffffff169050919050565b6000600660009054906101000a900473ffffffffffffffffffffffffffffffffffffffff16905081600660006101000a81548173ffffffffffffffffffffffffffffffffffffffff021916908373ffffffffffffffffffffffffffffffffffffffff1602179055508173ffffffffffffffffffffffffffffffffffffffff168173ffffffffffffffffffffffffffffffffffffffff167f8be0079c531659141344cd1fd0a4f28419497f9722a3daafe3b4186f6b6457e060405160405180910390a35050565b8173ffffffffffffffffffffffffffffffffffffffff168373ffffffffffffffffffffffffffffffffffffffff16036118a3576040517f08c379a000000000000000000000000000000000000000000000000000000000815260040161189a90613167565b60405180910390fd5b80600560008573ffffffffffffffffffffffffffffffffffffffff1673ffffffffffffffffffffffffffffffffffffffff16815260200190815260200160002060008473ffffffffffffffffffffffffffffffffffffffff1673ffffffffffffffffffffffffffffffffffffffff16815260200190815260200160002060006101000a81548160ff0219169083151502179055508173ffffffffffffffffffffffffffffffffffffffff168373ffffffffffffffffffffffffffffffffffffffff167f17307eab39ab6107e8899845ad3d59bd9653f200f220920489ca2b5937696c31836040516119949190611ee0565b60405180910390a3505050565b6119ac84848461136c565b6119b884848484611c61565b6119f7576040517f08c379a00000000000000000000000000000000000000000000000000000000081526004016119ee906131f9565b60405180910390fd5b50505050565b600073ffffffffffffffffffffffffffffffffffffffff168273ffffffffffffffffffffffffffffffffffffffff1603611a6c576040517f08c379a0000000000000000000000000000000000000000000000000000000008152600401611a6390613265565b60405180910390fd5b611a7581611673565b15611ab5576040517f08c379a0000000000000000000000000000000000000000000000000000000008152600401611aac906132d1565b60405180910390fd5b611ac3600083836001611c55565b611acc81611673565b15611b0c576040517f08c379a0000000000000000000000000000000000000000000000000000000008152600401611b03906132d1565b60405180910390fd5b6001600360008473ffffffffffffffffffffffffffffffffffffffff1673ffffffffffffffffffffffffffffffffffffffff16815260200190815260200160002060008282540192505081905550816002600083815260200190815260200160002060006101000a81548173ffffffffffffffffffffffffffffffffffffffff021916908373ffffffffffffffffffffffffffffffffffffffff160217905550808273ffffffffffffffffffffffffffffffffffffffff16600073ffffffffffffffffffffffffffffffffffffffff167fddf252ad1be2c89b69c2b068fc378daa952ba7f163c4a11628f55a4df523b3ef60405160405180910390a4611c16600083836001611c5b565b5050565b80600860008481526020019081526020016000209081611c3a919061349d565b505050565b6001816000016000828254019250508190555050565b50505050565b50505050565b6000611c828473ffffffffffffffffffffffffffffffffffffffff16611de8565b15611ddb578373ffffffffffffffffffffffffffffffffffffffff1663150b7a02611cab611216565b8786866040518563ffffffff1660e01b8152600401611ccd94939291906135c4565b6020604051808303816000875af1925050508015611d0957506040513d601f19601f82011682018060405250810190611d069190613625565b60015b611d8b573d8060008114611d39576040519150601f19603f3d011682016040523d82523d6000602084013e611d3e565b606091505b506000815103611d83576040517f08c379a0000000000000000000000000000000000000000000000000000000008152600401611d7a906131f9565b60405180910390fd5b805181602001fd5b63150b7a0260e01b7bffffffffffffffffffffffffffffffffffffffffffffffffffffffff1916817bffffffffffffffffffffffffffffffffffffffffffffffffffffffff191614915050611de0565b600190505b949350505050565b6000808273ffffffffffffffffffffffffffffffffffffffff163b119050919050565b60405180606001604052806000815260200160608152602001606081525090565b6000604051905090565b600080fd5b600080fd5b60007fffffffff0000000000000000000000000000000000000000000000000000000082169050919050565b611e7581611e40565b8114611e8057600080fd5b50565b600081359050611e9281611e6c565b92915050565b600060208284031215611eae57611ead611e36565b5b6000611ebc84828501611e83565b91505092915050565b60008115159050919050565b611eda81611ec5565b82525050565b6000602082019050611ef56000830184611ed1565b92915050565b600081519050919050565b600082825260208201905092915050565b60005b83811015611f35578082015181840152602081019050611f1a565b60008484015250505050565b6000601f19601f8301169050919050565b6000611f5d82611efb565b611f678185611f06565b9350611f77818560208601611f17565b611f8081611f41565b840191505092915050565b60006020820190508181036000830152611fa58184611f52565b905092915050565b6000819050919050565b611fc081611fad565b8114611fcb57600080fd5b50565b600081359050611fdd81611fb7565b92915050565b600060208284031215611ff957611ff8611e36565b5b600061200784828501611fce565b91505092915050565b600073ffffffffffffffffffffffffffffffffffffffff82169050919050565b600061203b82612010565b9050919050565b61204b81612030565b82525050565b60006020820190506120666000830184612042565b92915050565b61207581612030565b811461208057600080fd5b50565b6000813590506120928161206c565b92915050565b600080604083850312156120af576120ae611e36565b5b60006120bd85828601612083565b92505060206120ce85828601611fce565b9150509250929050565b6000806000606084860312156120f1576120f0611e36565b5b60006120ff86828701612083565b935050602061211086828701612083565b925050604061212186828701611fce565b9150509250925092565b600081519050919050565b600082825260208201905092915050565b6000819050602082019050919050565b61216081611fad565b82525050565b600082825260208201905092915050565b600061218282611efb565b61218c8185612166565b935061219c818560208601611f17565b6121a581611f41565b840191505092915050565b60006060830160008301516121c86000860182612157565b50602083015184820360208601526121e08282612177565b915050604083015184820360408601526121fa8282612177565b9150508091505092915050565b600061221383836121b0565b905092915050565b6000602082019050919050565b60006122338261212b565b61223d8185612136565b93508360208202850161224f85612147565b8060005b8581101561228b578484038952815161226c8582612207565b94506122778361221b565b925060208a01995050600181019050612253565b50829750879550505050505092915050565b600060208201905081810360008301526122b78184612228565b905092915050565b6000602082840312156122d5576122d4611e36565b5b60006122e384828501612083565b91505092915050565b6122f581611fad565b82525050565b600060208201905061231060008301846122ec565b92915050565b61231f81611ec5565b811461232a57600080fd5b50565b60008135905061233c81612316565b92915050565b6000806040838503121561235957612358611e36565b5b600061236785828601612083565b92505060206123788582860161232d565b9150509250929050565b600080fd5b600080fd5b7f4e487b7100000000000000000000000000000000000000000000000000000000600052604160045260246000fd5b6123c482611f41565b810181811067ffffffffffffffff821117156123e3576123e261238c565b5b80604052505050565b60006123f6611e2c565b905061240282826123bb565b919050565b600067ffffffffffffffff8211156124225761242161238c565b5b61242b82611f41565b9050602081019050919050565b82818337600083830152505050565b600061245a61245584612407565b6123ec565b90508281526020810184848401111561247657612475612387565b5b612481848285612438565b509392505050565b600082601f83011261249e5761249d612382565b5b81356124ae848260208601612447565b91505092915050565b600080600080608085870312156124d1576124d0611e36565b5b60006124df87828801612083565b94505060206124f087828801612083565b935050604061250187828801611fce565b925050606085013567ffffffffffffffff81111561252257612521611e3b565b5b61252e87828801612489565b91505092959194509250565b600067ffffffffffffffff8211156125555761255461238c565b5b61255e82611f41565b9050602081019050919050565b600061257e6125798461253a565b6123ec565b90508281526020810184848401111561259a57612599612387565b5b6125a5848285612438565b509392505050565b600082601f8301126125c2576125c1612382565b5b81356125d284826020860161256b565b91505092915050565b600080604083850312156125f2576125f1611e36565b5b600061260085828601612083565b925050602083013567ffffffffffffffff81111561262157612620611e3b565b5b61262d858286016125ad565b9150509250929050565b600067ffffffffffffffff8211156126525761265161238c565b5b602082029050602081019050919050565b600080fd5b600061267b61267684612637565b6123ec565b9050808382526020820190506020840283018581111561269e5761269d612663565b5b835b818110156126e557803567ffffffffffffffff8111156126c3576126c2612382565b5b8086016126d089826125ad565b855260208501945050506020810190506126a0565b5050509392505050565b600082601f83011261270457612703612382565b5b8135612714848260208601612668565b91505092915050565b60008060006060848603121561273657612735611e36565b5b600061274486828701612083565b935050602061275586828701611fce565b925050604084013567ffffffffffffffff81111561277657612775611e3b565b5b612782868287016126ef565b9150509250925092565b600080604083850312156127a3576127a2611e36565b5b60006127b185828601612083565b92505060206127c285828601612083565b9150509250929050565b7f4e487b7100000000000000000000000000000000000000000000000000000000600052602260045260246000fd5b6000600282049050600182168061281357607f821691505b602082108103612826576128256127cc565b5b50919050565b7f4552433732313a20617070726f76616c20746f2063757272656e74206f776e6560008201527f7200000000000000000000000000000000000000000000000000000000000000602082015250565b6000612888602183611f06565b91506128938261282c565b604082019050919050565b600060208201905081810360008301526128b78161287b565b9050919050565b7f4552433732313a20617070726f76652063616c6c6572206973206e6f7420746f60008201527f6b656e206f776e6572206f7220617070726f76656420666f7220616c6c000000602082015250565b600061291a603d83611f06565b9150612925826128be565b604082019050919050565b600060208201905081810360008301526129498161290d565b9050919050565b7f4552433732313a2063616c6c6572206973206e6f7420746f6b656e206f776e6560008201527f72206f7220617070726f76656400000000000000000000000000000000000000602082015250565b60006129ac602d83611f06565b91506129b782612950565b604082019050919050565b600060208201905081810360008301526129db8161299f565b9050919050565b7f4e487b7100000000000000000000000000000000000000000000000000000000600052603260045260246000fd5b7f4e487b7100000000000000000000000000000000000000000000000000000000600052601160045260246000fd5b6000612a4b82611fad565b91507fffffffffffffffffffffffffffffffffffffffffffffffffffffffffffffffff8203612a7d57612a7c612a11565b5b600182019050919050565b7f4e6f2062616c616e636520746f20776974686472617700000000000000000000600082015250565b6000612abe601683611f06565b9150612ac982612a88565b602082019050919050565b60006020820190508181036000830152612aed81612ab1565b9050919050565b7f4552433732313a20696e76616c696420746f6b656e2049440000000000000000600082015250565b6000612b2a601883611f06565b9150612b3582612af4565b602082019050919050565b60006020820190508181036000830152612b5981612b1d565b9050919050565b7f5472616e736665722063616c6c6572206973206e6f74206f776e6572206e6f7260008201527f20617070726f7665640000000000000000000000000000000000000000000000602082015250565b6000612bbc602983611f06565b9150612bc782612b60565b604082019050919050565b60006020820190508181036000830152612beb81612baf565b9050919050565b7f4552433732313a2061646472657373207a65726f206973206e6f74206120766160008201527f6c6964206f776e65720000000000000000000000000000000000000000000000602082015250565b6000612c4e602983611f06565b9150612c5982612bf2565b604082019050919050565b60006020820190508181036000830152612c7d81612c41565b9050919050565b7f555249206e6f74206578697374206f6e20746861742049440000000000000000600082015250565b6000612cba601883611f06565b9150612cc582612c84565b602082019050919050565b60006020820190508181036000830152612ce981612cad565b9050919050565b7f5175616e74697479206d7573742062652067726561746572207468616e203000600082015250565b6000612d26601f83611f06565b9150612d3182612cf0565b602082019050919050565b60006020820190508181036000830152612d5581612d19565b9050919050565b7f4e756d626572206f662055524973206d757374206d61746368207175616e746960008201527f7479000000000000000000000000000000000000000000000000000000000000602082015250565b6000612db8602283611f06565b9150612dc382612d5c565b604082019050919050565b60006020820190508181036000830152612de781612dab565b9050919050565b6000612df982611fad565b9150612e0483611fad565b9250828202612e1281611fad565b91508282048414831517612e2957612e28612a11565b5b5092915050565b7f496e73756666696369656e74207061796d656e74000000000000000000000000600082015250565b6000612e66601483611f06565b9150612e7182612e30565b602082019050919050565b60006020820190508181036000830152612e9581612e59565b9050919050565b6000612ea782611fad565b9150612eb283611fad565b9250828203905081811115612eca57612ec9612a11565b5b92915050565b6000604082019050612ee560008301856122ec565b612ef260208301846122ec565b9392505050565b7f4f776e61626c653a206e6577206f776e657220697320746865207a65726f206160008201527f6464726573730000000000000000000000000000000000000000000000000000602082015250565b6000612f55602683611f06565b9150612f6082612ef9565b604082019050919050565b60006020820190508181036000830152612f8481612f48565b9050919050565b7f4552433732313a207472616e736665722066726f6d20696e636f72726563742060008201527f6f776e6572000000000000000000000000000000000000000000000000000000602082015250565b6000612fe7602583611f06565b9150612ff282612f8b565b604082019050919050565b6000602082019050818103600083015261301681612fda565b9050919050565b7f4552433732313a207472616e7366657220746f20746865207a65726f2061646460008201527f7265737300000000000000000000000000000000000000000000000000000000602082015250565b6000613079602483611f06565b91506130848261301d565b604082019050919050565b600060208201905081810360008301526130a88161306c565b9050919050565b7f4f776e61626c653a2063616c6c6572206973206e6f7420746865206f776e6572600082015250565b60006130e5602083611f06565b91506130f0826130af565b602082019050919050565b60006020820190508181036000830152613114816130d8565b9050919050565b7f4552433732313a20617070726f766520746f2063616c6c657200000000000000600082015250565b6000613151601983611f06565b915061315c8261311b565b602082019050919050565b6000602082019050818103600083015261318081613144565b9050919050565b7f4552433732313a207472616e7366657220746f206e6f6e20455243373231526560008201527f63656976657220696d706c656d656e7465720000000000000000000000000000602082015250565b60006131e3603283611f06565b91506131ee82613187565b604082019050919050565b60006020820190508181036000830152613212816131d6565b9050919050565b7f4552433732313a206d696e7420746f20746865207a65726f2061646472657373600082015250565b600061324f602083611f06565b915061325a82613219565b602082019050919050565b6000602082019050818103600083015261327e81613242565b9050919050565b7f4552433732313a20746f6b656e20616c7265616479206d696e74656400000000600082015250565b60006132bb601c83611f06565b91506132c682613285565b602082019050919050565b600060208201905081810360008301526132ea816132ae565b9050919050565b60008190508160005260206000209050919050565b60006020601f8301049050919050565b600082821b905092915050565b6000600883026133537fffffffffffffffffffffffffffffffffffffffffffffffffffffffffffffffff82613316565b61335d8683613316565b95508019841693508086168417925050509392505050565b6000819050919050565b600061339a61339561339084611fad565b613375565b611fad565b9050919050565b6000819050919050565b6133b48361337f565b6133c86133c0826133a1565b848454613323565b825550505050565b600090565b6133dd6133d0565b6133e88184846133ab565b505050565b5b8181101561340c576134016000826133d5565b6001810190506133ee565b5050565b601f82111561345157613422816132f1565b61342b84613306565b8101602085101561343a578190505b61344e61344685613306565b8301826133ed565b50505b505050565b600082821c905092915050565b600061347460001984600802613456565b1980831691505092915050565b600061348d8383613463565b9150826002028217905092915050565b6134a682611efb565b67ffffffffffffffff8111156134bf576134be61238c565b5b6134c982546127fb565b6134d4828285613410565b600060209050601f83116001811461350757600084156134f5578287015190505b6134ff8582613481565b865550613567565b601f198416613515866132f1565b60005b8281101561353d57848901518255600182019150602085019450602081019050613518565b8683101561355a5784890151613556601f891682613463565b8355505b6001600288020188555050505b505050505050565b600081519050919050565b600082825260208201905092915050565b60006135968261356f565b6135a0818561357a565b93506135b0818560208601611f17565b6135b981611f41565b840191505092915050565b60006080820190506135d96000830187612042565b6135e66020830186612042565b6135f360408301856122ec565b8181036060830152613605818461358b565b905095945050505050565b60008151905061361f81611e6c565b92915050565b60006020828403121561363b5761363a611e36565b5b600061364984828501613610565b9150509291505056fea2646970667358221220df110eba8ce9a8cc8738a8ab3cc31f959c976341e291a6129c2cf410b4666d1964736f6c63430008180033",
  "linkReferences": {},
  "deployedLinkReferences": {}
}